:1020000083FEFFFF749F68A32074BF68A32074DF62
:1020100068A32074FF68A320748C68A320740568EB
:10202000A32074AA68A320740568A32082000282FA
:102030009103750368A3207503A22068A320827210
:10204000016799209503E4A05C32209502E40C5CC2
:102050002F20749F68A32074BF68A32074DF68A337
:102060002074FF68A3206715F0640420646C206A64
:10207000678E206B9B5C6F206976E1FE3E40E4003A
:102080005D792076E1FE3E40E4005C83206982C2F7
:102090000000009C005C912069677920678E2067B2
:1020A0008E20697EE0FE8302E2FE000000008300D5
:1020B000E2FE69749F68A32074BF68A32074DF6880
:0820C000A32074FF68A320694E
:00000001FF